:020000040800F2
:10500000005000206D560008FD55000803560008AA
:10501000095600080F560008155600080000000049
:105020000000000000000000000000001B56000807
:105030002756000800000000335600083F560008BD
:10504000B5560008B5560008B5560008B556000814
:10505000B5560008B5560008B5560008B556000804
:10506000B5560008B5560008B5560008B5560008F4
:10507000B5560008B5560008B5560008B5560008E4
:10508000B5560008B5560008B5560008B5560008D4
:10509000B5560008B5560008B5560008B5560008C4
:1050A000B5560008B5560008B5560008B5560008B4
:1050B000B5560008B5560008B5560008B5560008A4
:1050C000B5560008B5560008B5560008B556000894
:1050D000B55600084D560008B5560008B5560008EC
:1050E000B5560008B5560008B55600080000000087
:1050F00000000000000000000000000000000000B0
:0C51000000000000000000005FF808F153
:10510C0010B5054C237833B9044B13B10448AFF3F5
:10511C0000800123237010BD10000020000000004F
:10512C007873000808B5034B1BB103490348AFF370
:10513C00008008BD000000001400002078730008F7
:10514C0010F8012B11F8013B012A28BF9A42F7D025
:10515C00D01A7047B0B58EB000AF78607B681B6812
:10516C00204A934239D120492048FFF7E9FF0346F2
:10517C00002B1DD11E4B07F120041D460FCD0FC473
:10518C002B6823801B4B7B630123FB6107F1200100
:10519C004FF0FF331222184801F0D3FC07F11C0327
:1051AC0001221946786B00F03DF900F01CFC14E06C
:1051BC00124B07F108041D460FCD0FC42B6823605A
:1051CC0007F108014FF0FF3314220B4801F0B9FC32
:1051DC0004220649084801F046FD00BF3837BD4699
:1051EC00B0BD00BF00380140907300087C00002067
:1051FC009873000800FC01083C000020AC73000808
:10520C00B0B590B000AF164B164A9A6000F04EFA4B
:10521C0000F032F800F0A0F800F074F8124B3C46A5
:10522C001D460FCD0FC40FCD0FC40FCD0FC495E885
:10523C000F0007C4237039464FF0FF333D220B4853
:10524C0001F07FFC04220A49084801F00CFD012101
:10525C00084800F0F5FF4FF4FA7000F089FAF6E711
:10526C0000ED00E000500008C07300083C00002076
:10527C007C0000200008014080B590B000AF07F121
:10528C00180328220021184602F068F83B1D002262
:10529C001A605A609A60DA601A610123BB614FF49C
:1052AC008033FB6100233B620123BB6202237B63DF
:1052BC004FF48033BB634FF4E013FB6307F1180327
:1052CC00184600F0D7FF0346002B01D000F004F97C
:1052DC000F237B600223BB600023FB604FF48063D1
:1052EC003B6100237B613B1D0221184601F042FA11
:1052FC000346002B01D000F0EFF800BF4037BD464D
:10530C0080BD000080B500AF114B124A1A60104BE3
:10531C004FF4E1325A600E4B00229A600C4B002283
:10532C00DA600B4B00221A61094B0C225A61084BB4
:10533C0000229A61064B0022DA61054801F0B4FBA9
:10534C000346002B01D000F0C7F800BF80BD00BFA2
:10535C003C0000200038014080B586B000AF07F15A
:10536C00080300221A605A609A60DA60174B9B6936
:10537C00164A43F020039361144B9B6903F02003FE
:10538C007B607B68114B9B69104A43F0040393616B
:10539C000E4B9B6903F004033B603B680022012128
:1053AC000B4800F035FF0123BB600123FB60002399
:1053BC003B6102237B6107F108031946044800F0A6
:1053CC00A3FD00BF1837BD4680BD00BF00100240D2
:1053DC000008014080B485B000AF78600023FB600A
:1053EC0016E0FB6803F5003301339B027A689A429E
:1053FC000BD2FB6803F500339B027A689A4204D304
:10540C00FB6803F500339B0206E0FB680133FB608D
:10541C00FB687F2BE5DD002318461437BD4680BCA6
:10542C007047000080B58AB000AFF860B9601346D1
:10543C00FB8000237B6200F0CDFBF868FFF7CAFF0E
:10544C003862FB889B001A46FB681344FB61F869C1
:10545C00FFF7C0FFB8611F4B00221A601D4A3B6A60
:10546C009360BA693B6AD31A9B0A0133194AD36019
:10547C0007F114031946174800F09EFC0346002B55
:10548C001DD000F0DDFB034620E07B6A9B00BA6870
:10549C0013441B681A464FF00003F968022000F011
:1054AC0029FB0346002B06D1FB680433FB607B6AA7
:1054BC0001337B6203E000F0C3FB034606E0FB888C
:1054CC007A6A9A42E1DB00F0ABFB002318462837DE
:1054DC00BD4680BD2C00002080B400AF72B600BF6A
:1054EC00FEE7000080B485B000AF154B9B69144AF1
:1054FC0043F001039361124B9B6903F00103BB6002
:10550C00BB680F4BDB690E4A43F08053D3610C4BE5
:10551C00DB6903F080537B607B680A4B5B68FB6044
:10552C00FB6823F0E063FB60FB6843F00073FB60F7
:10553C00044AFB68536000BF1437BD4680BC7047FB
:10554C00001002400000014080B588B000AF7860C8
:10555C0007F1100300221A605A609A60DA607B68C7
:10556C001B68204A934239D11F4B9B691E4A43F456
:10557C00804393611C4B9B6903F48043FB60FB6885
:10558C00194B9B69184A43F004039361164B9B69B2
:10559C0003F00403BB60BB684FF400733B61022350
:1055AC007B610323FB6107F1100319460F4800F0E0
:1055BC00ABFC4FF480633B6100237B610023BB6138
:1055CC0007F110031946094800F09EFC0022002147
:1055DC00252000F0DEF9252000F0F7F900BF203778
:1055EC00BD4680BD0038014000100240000801405B
:1055FC0080B400AFFEE780B400AFFEE780B400AF2C
:10560C00FEE780B400AFFEE780B400AFFEE780B4E5
:10561C0000AF00BFBD4680BC704780B400AF00BF78
:10562C00BD4680BC704780B400AF00BFBD4680BC97
:10563C00704780B500AF00F07FF800BF80BD000060
:10564C0080B500AF024801F063FB00BF80BD00BF16
:10565C003C00002080B400AF00BFBD4680BC70474A
:10566C00002103E00B4B5B58435004310A480B4BB1
:10567C0042189A42F6D30A4A02E0002342F8043B4D
:10568C00084B9A42F9D3FFF7E5FF01F043FEFFF711
:10569C00B7FD704730740008000000200C0000209B
:1056AC0010000020A8000020FEE7000080B500AF2D
:1056BC00084B1B68074A43F010031360032000F0EB
:1056CC005DF9002000F008F8FFF70CFF00231846E6
:1056DC0080BD00BF0020024080B582B000AF786072
:1056EC00124B1A68124B1B7819464FF47A73B3FBA2
:1056FC00F1F3B2FBF3F3184600F079F90346002BF3
:10570C0001D001230EE07B680F2B0AD800227968A8
:10571C004FF0FF3000F03DF9064A7B681360002320
:10572C0000E0012318460837BD4680BD000000206C
:10573C00080000200400002080B400AF054B1B784B
:10574C001A46054B1B681344034A136000BFBD4641
:10575C0080BC7047080000208400002080B400AF9B
:10576C00024B1B681846BD4680BC70478400002065
:10577C0080B584B000AF7860FFF7F0FFB8607B684D
:10578C00FB60FB68B3F1FF3F05D00A4B1B781A4650
:10579C00FB681344FB6000BFFFF7E0FF0246BB68E9
:1057AC00D31AFA689A42F7D800BF00BF1037BD462B
:1057BC0080BD00BF0800002080B485B000AF7860C9
:1057CC007B6803F00703FB600C4BDB68BB60BA68BB
:1057DC004FF6FF031340BB60FB681A02BB68134310
:1057EC0043F0BF6343F40033BB60044ABB68D3602F
:1057FC0000BF1437BD4680BC704700BF00ED00E011
:10580C0080B400AF044BDB681B0A03F00703184697
:10581C00BD4680BC704700BF00ED00E080B483B093
:10582C0000AF0346FB7197F90730002B0BDBFB79BC
:10583C0003F01F02064997F907305B09012000FAB3
:10584C0002F241F8232000BF0C37BD4680BC7047E4
:10585C0000E100E080B483B000AF03463960FB7117
:10586C0097F90730002B0ADB3B68DAB20C4997F941
:10587C0007301201D2B20B4483F800230AE03B68D4
:10588C00DAB20849FB7903F00F03043B1201D2B2E0
:10589C000B441A7600BF0C37BD4680BC704700BF66
:1058AC0000E100E000ED00E080B489B000AFF860EA
:1058BC00B9607A60FB6803F00703FB61FB69C3F115
:1058CC000703042B28BF0423BB61FB690433062B9D
:1058DC0002D9FB69033B00E000237B614FF0FF32F0
:1058EC00BB6902FA03F3DA43BB681A407B699A403E
:1058FC004FF0FF317B6901FA03F3D9437B680B400E
:10590C00134318462437BD4680BC704780B400AFA3
:10591C00BFF34F8F00BF064BDB6803F4E062044912
:10592C00044B1343CB60BFF34F8F00BF00BFFDE7A9
:10593C0000ED00E00400FA0580B582B000AF78609D
:10594C007B68013BB3F1807F01D301230FE00A4A4E
:10595C007B68013B53600F214FF0FF30FFF77AFF5C
:10596C00054B00229A60044B07221A60002318464C
:10597C000837BD4680BD00BF10E000E080B582B0A6
:10598C0000AF78607868FFF717FF00BF0837BD4697
:10599C0080BD80B586B000AF0346B9607A60FB73FA
:1059AC0000237B61FFF72CFF78617A68B96878690E
:1059BC00FFF77AFF024697F90F3011461846FFF7AA
:1059CC0049FF00BF1837BD4680BD80B582B000AF1F
:1059DC000346FB7197F907301846FFF71FFF00BF0E
:1059EC000837BD4680BD80B500AFFFF78FFF80B58F
:1059FC0082B000AF78607868FFF79EFF03461846C8
:105A0C000837BD4680BD000080B584B000AF78601B
:105A1C000023FB737B6893F82130022B05D07B6845
:105A2C0004229A630123FB7351E07B681B681A689C
:105A3C007B681B6822F00E021A607B681B681A6870
:105A4C007B681B6822F001021A607B681B68224A83
:105A5C00934229D07B681B68204A934222D07B68F2
:105A6C001B681F4A93421AD07B681B681D4A9342DD
:105A7C0012D07B681B681C4A93420AD07B681B6857
:105A8C001A4A934202D14FF480130EE04FF0807308
:105A9C000BE04FF4803308E04FF4805305E04FF4F3
:105AAC00807302E0102300E00123114A53607B68ED
:105ABC00012283F821207B68002283F820207B6858
:105ACC005B6B002B03D07B685B6B78689847FB7B28
:105ADC0018461037BD4680BD080002401C0002402D
:105AEC003000024044000240580002406C0002406A
:105AFC0000000240F0B587B000AFF860B960C7E9AC
:105B0C0000230123FB750023BB7500237B752F4BF2
:105B1C001B7E012B01D1022354E02C4B01221A765F
:105B2C004CF2503000F0B2F80346FB75FB7D002BB5
:105B3C0044D1FB68012B02D101237B7507E0FB6884
:105B4C00022B02D102237B7501E004237B75002319
:105B5C00BB752DE0BB7D5A00BB6802EB030CBB7D13
:105B6C001901D7E90023C1F12006A1F1200022FA86
:105B7C0001F403FA06F6344323FA00F0044323FA43
:105B8C0001F5A3B21946604600F064F84CF25030AF
:105B9C0000F07CF80346FB750D4B1B690C4A23F097
:105BAC0001031361FB7D002B07D1BB7D0133BB755A
:105BBC00BA7D7B7D9A42CDD300E000BF034B00221F
:105BCC001A76FB7D18461C37BD46F0BD88000020B8
:105BDC000020024080B483B000AF0023FB710D4B5A
:105BEC001B6903F08003002B0DD00A4B0A4A5A6044
:105BFC00084B0A4A5A60074B1B6903F08003002BC1
:105C0C0001D00123FB71FB7918460C37BD4680BCD3
:105C1C00704700BF0020024023016745AB89EFCDE0
:105C2C0080B400AF054B1B69044A43F08003136139
:105C3C0000231846BD4680BC704700BF00200240C0
:105C4C0080B400AF024BDB691846BD4680BC704780
:105C5C008800002080B483B000AF78600B467B8056
:105C6C00084B0022DA61084B1B69074A43F0010319
:105C7C0013617B687A881A8000BF0C37BD4680BCE4
:105C8C00704700BF880000200020024080B584B01F
:105C9C0000AF7860FFF762FDF86010E07B68B3F14D
:105CAC00FF3F0CD07B68002B07D0FFF757FD024657
:105CBC00FB68D31A7A689A4201D2032325E0154B6C
:105CCC00DB6803F00103002BE8D1124BDB6803F017
:105CDC002003002B02D00F4B2022DA600D4BDB6827
:105CEC0003F01003002B0BD10A4BDB6903F001030B
:105CFC00002B05D1074BDB6803F00403002B03D00A
:105D0C0000F00AF8012300E0002318461037BD46C6
:105D1C0080BD00BF0020024080B483B000AF0023E0
:105D2C007B60234BDB6803F01003002B09D0214B65
:105D3C00DB6943F002031F4AD3617B6843F0100315
:105D4C007B601B4BDB6803F00403002B09D0194B61
:105D5C00DB6943F00103174AD3617B6843F004030A
:105D6C007B60134BDB6903F00103002B0BD0114B51
:105D7C00DB6943F004030F4AD3610D4BDB690C4A1A
:105D8C0023F00103D3617B6840F20112934206D1E8
:105D9C00074BDB69064A23F00103D36102E0044A96
:105DAC007B68D36000BF0C37BD4680BC704700BF1A
:105DBC00002002408800002080B584B000AF7860DD
:105DCC0039600123FB730023BB602F4B1B7E012B1F
:105DDC0001D1022353E02C4B01221A767B681B68FD
:105DEC00022B16D14CF25030FFF750FF0346002B1C
:105DFC0041D1012000F04CF84CF25030FFF746FF37
:105E0C000346FB73214B1B69204A23F004031361E7
:105E1C0031E04CF25030FFF739FF0346002B2AD10A
:105E2C003B684FF0FF321A607B689B68BB6019E0DF
:105E3C00B86800F049F84CF25030FFF727FF0346E2
:105E4C00FB73124B1B69114A23F002031361FB7B9A
:105E5C00002B03D03B68BA681A600CE0BB6803F5F2
:105E6C008063BB607B68DB689A027B689B68134429
:105E7C00BA689A42DCD3044B00221A76FB7B184694
:105E8C001037BD4680BD00BF8800002000200240B6
:105E9C0080B483B000AF7860094B0022DA61094B03
:105EAC001B69084A43F004031361064B1B69054A3E
:105EBC0043F04003136100BF0C37BD4680BC7047F4
:105ECC00880000200020024080B483B000AF7860CE
:105EDC000B4B0022DA610B4B1B690A4A43F002039D
:105EEC001361084A7B685361064B1B69054A43F0F2
:105EFC004003136100BF0C37BD4680BC704700BF28
:105F0C00880000200020024080B48BB000AF786085
:105F1C00396000237B6200233B6269E101227B6ACA
:105F2C0002FA03F3FB613B681B68FA691340BB611F
:105F3C00BA69FB699A4240F058813B685B689A4A9F
:105F4C0093425ED0984A934275D8984A934258D05F
:105F5C00964A93426FD8964A934252D0944A9342AF
:105F6C0069D8944A93424CD0924A934263D8924A4D
:105F7C00934246D0904A93425DD8122B2AD8122BCA
:105F8C0059D801A252F823F00F600008E95F00080D
:105F9C00FB5F00083D600008436000084360000898
:105FAC004360000843600008436000084360000839
:105FBC004360000843600008436000084360000829
:105FCC00436000084360000843600008F15F00086C
:105FDC0005600008794A934213D02CE03B68DB68DB
:105FEC003B6229E03B68DB6804333B6224E03B689E
:105FFC00DB6808333B621FE03B68DB680C333B62B9
:10600C001AE03B689B68002B02D104233B6213E02F
:10601C003B689B68012B05D108233B627B68FA69BE
:10602C001A6109E008233B627B68FA695A6103E054
:10603C0000233B6200E000BFBB69FF2B01D87B68EB
:10604C0001E07B6804337B61BB69FF2B02D87B6A60
:10605C009B0002E07B6A083B9B003B617B691A68F2
:10606C000F213B6901FA03F3DB431A40396A3B69A0
:10607C0001FA03F31A437B691A603B685B6803F00F
:10608C008053002B00F0B1804D4B9B694C4A43F080
:10609C00010393614A4B9B6903F00103BB60BB682E
:1060AC00484A7B6A9B08023352F82330FB607B6AB8
:1060BC0003F003039B000F2202FA03F3DB43FA689D
:1060CC001340FB607B68404A934213D07B683F4A85
:1060DC0093420DD07B683E4A934207D07B683D4A81
:1060EC00934201D1032306E0042304E0022302E0DF
:1060FC00012300E000237A6A02F00302920093402D
:10610C00FA681343FB602F497B6A9B080233FA68D9
:10611C0041F823203B685B6803F48033002B06D0E6
:10612C002D4B1A682C49BB6913430B6006E02A4BB4
:10613C001A68BB69DB43284913400B603B685B68FA
:10614C0003F40033002B06D0234B5A682249BB6959
:10615C0013434B6006E0204B5A68BB69DB431E4976
:10616C0013404B603B685B6803F48013002B06D034
:10617C00194B9A681849BB6913438B6006E0164BA0
:10618C009A68BB69DB43144913408B603B685B68BE
:10619C0003F40013002B21D00F4BDA680E49BB69B6
:1061AC001343CB6021E000BF00003210000031101F
:1061BC00000022100000211000001210000011102D
:1061CC00001002400000014000080140000C01409A
:1061DC000010014000140140000401400B4BDA6830
:1061EC00BB69DB4309491340CB607B6A01337B629B
:1061FC003B681A687B6A22FA03F3002B7FF48EAE9D
:10620C0000BF00BF2C37BD4680BC70470004014066
:10621C0080B483B000AF78600B467B8013467B70F4
:10622C007B78002B03D07A887B681A6103E07B882B
:10623C001A047B681A6100BF0C37BD4680BC7047DE
:10624C0080B485B000AF78600B467B807B68DB68E0
:10625C00FB607A88FB6813401A04FB68D9437B887F
:10626C000B401A437B681A6100BF1437BD4680BCD3
:10627C007047000080B586B000AF78607B68002B5B
:10628C0001D101236CE27B681B6803F00103002B36
:10629C0000F08780924B5B6803F00C03042B0CD04E
:1062AC008F4B5B6803F00C03082B12D18C4B5B6893
:1062BC0003F48033B3F5803F0BD1894B1B6803F497
:1062CC000033002B6CD07B685B68002B68D10123FA
:1062DC0046E27B685B68B3F5803F06D1804B1B6858
:1062EC007F4A43F4803313602EE07B685B68002B9D
:1062FC000CD17B4B1B687A4A23F480331360784BA8
:10630C001B68774A23F4802313601DE07B685B686D
:10631C00B3F5A02F0CD1724B1B68714A43F4802348
:10632C0013606F4B1B686E4A43F4803313600BE0B1
:10633C006B4B1B686A4A23F480331360684B1B68F1
:10634C00674A23F4802313607B685B68002B13D0AF
:10635C00FFF704FA386108E0FFF700FA02463B69E0
:10636C00D31A642B01D90323FAE15D4B1B6803F4A8
:10637C000033002BF0D014E0FFF7F0F9386108E09F
:10638C00FFF7ECF902463B69D31A642B01D90323BE
:10639C00E6E1534B1B6803F40033002BF0D100E013
:1063AC0000BF7B681B6803F00203002B63D04C4BCF
:1063BC005B6803F00C03002B0BD0494B5B6803F0BC
:1063CC000C03082B1CD1464B5B6803F48033002B69
:1063DC0016D1434B1B6803F00203002B05D07B68DE
:1063EC001B69012B01D00123BAE13D4B1B6823F043
:1063FC00F8027B685B69DB00394913430B603AE0B8
:10640C007B681B69002B20D0364B01221A60FFF7EA
:10641C00A5F9386108E0FFF7A1F902463B69D31AE8
:10642C00022B01D903239BE12D4B1B6803F00203C4
:10643C00002BF0D02A4B1B6823F0F8027B685B69B9
:10644C00DB00274913430B6015E0264B00221A6032
:10645C00FFF784F9386108E0FFF780F902463B69E1
:10646C00D31A022B01D903237AE11D4B1B6803F0CD
:10647C000203002BF0D17B681B6803F00803002B90
:10648C003AD07B689B69002B19D0174B01221A60FC
:10649C00FFF764F9386108E0FFF760F902463B69E1
:1064AC00D31A022B01D903235AE10D4B5B6A03F07B
:1064BC000203002BF0D0012000F0D8FA1CE00A4BAC
:1064CC0000221A60FFF74AF938610FE0FFF746F92E
:1064DC0002463B69D31A022B08D9032340E100BFC3
:1064EC000010024000004242800442429E4B5B6A14
:1064FC0003F00203002BE9D17B681B6803F0040353
:10650C00002B00F0A6800023FB75974BDB6903F092
:10651C008053002B0DD1944BDB69934A43F080538D
:10652C00D361914BDB6903F08053BB60BB680123E3
:10653C00FB758E4B1B6803F48073002B18D18B4BAF
:10654C001B688A4A43F480731360FFF707F93861BC
:10655C0008E0FFF703F902463B69D31A642B01D913
:10656C000323FDE0814B1B6803F48073002BF0D0F8
:10657C007B68DB68012B06D17B4B1B6A7A4A43F0A4
:10658C00010313622DE07B68DB68002B0CD1764B8A
:10659C001B6A754A23F001031362734B1B6A724A20
:1065AC0023F0040313621CE07B68DB68052B0CD121
:1065BC006D4B1B6A6C4A43F0040313626A4B1B6AF3
:1065CC00694A43F0010313620BE0674B1B6A664A8E
:1065DC0023F001031362644B1B6A634A23F0040328
:1065EC0013627B68DB68002B15D0FFF7B7F83861B6
:1065FC000AE0FFF7B3F802463B69D31A41F288323E
:10660C00934201D90323ABE0574B1B6A03F00203FF
:10661C00002BEED014E0FFF7A1F838610AE0FFF789
:10662C009DF802463B69D31A41F28832934201D954
:10663C00032395E04C4B1B6A03F00203002BEED1B5
:10664C00FB7D012B05D1484BDB69474A23F0805376
:10665C00D3617B68DB69002B00F08180424B5B6867
:10666C0003F00C03082B61D07B68DB69022B46D14D
:10667C003F4B00221A60FFF771F8386108E0FFF712
:10668C006DF802463B69D31A022B01D9032367E04C
:10669C00354B1B6803F00073002BF0D17B681B6A31
:1066AC00B3F5803F08D1304B5B6823F400327B6834
:1066BC009B682D4913434B602B4B5B6823F474127E
:1066CC007B68196A7B685B6A0B43274913434B60F1
:1066DC00274B01221A60FFF741F8386108E0FFF7F9
:1066EC003DF802463B69D31A022B01D9032337E04C
:1066FC001D4B1B6803F00073002BF0D02FE01C4BDC
:10670C0000221A60FFF72AF8386108E0FFF726F834
:10671C0002463B69D31A022B01D9032320E0124B0A
:10672C001B6803F00073002BF0D118E07B68DB6969
:10673C00012B01D1012313E00B4B5B68FB60FB6861
:10674C0003F480327B681B6A9A4206D1FB6803F41F
:10675C0070127B685B6A9A4201D0012300E000232F
:10676C0018461837BD4680BD00100240007000402E
:10677C006000424280B584B000AF786039607B68BD
:10678C00002B01D10123D0E06A4B1B6803F00703F7
:10679C003A689A4210D9674B1B6823F00702654987
:1067AC003B6813430B60634B1B6803F007033A68A9
:1067BC009A4201D00123B8E07B681B6803F0020306
:1067CC00002B20D07B681B6803F00403002B05D042
:1067DC00594B5B68584A43F4E06353607B681B6811
:1067EC0003F00803002B05D0534B5B68524A43F46B
:1067FC0060535360504B5B6823F0F0027B689B68DE
:10680C004D4913434B607B681B6803F00103002B5D
:10681C0040D07B685B68012B07D1474B1B6803F4A6
:10682C000033002B15D101237FE07B685B68022BC2
:10683C0007D1414B1B6803F00073002B09D10123D6
:10684C0073E03D4B1B6803F00203002B01D10123C5
:10685C006BE0394B5B6823F003027B685B6836495D
:10686C0013434B60FEF77AFFF8600AE0FEF776FF01
:10687C000246FB68D31A41F28832934201D90323B2
:10688C0053E02D4B5B6803F00C027B685B689B004C
:10689C009A42EBD1274B1B6803F007033A689A42E4
:1068AC0010D2244B1B6823F0070222493B68134388
:1068BC000B60204B1B6803F007033A689A4201D027
:1068CC00012332E07B681B6803F00403002B08D023
:1068DC00194B5B6823F4E0627B68DB681649134351
:1068EC004B607B681B6803F00803002B09D0124B2C
:1068FC005B6823F460527B681B69DB000E49134311
:10690C004B6000F021F802460B4B5B681B0903F04F
:10691C000F030A49CB5C22FA03F3094A1360094BB3
:10692C001B681846FEF7D8FE002318461037BD46E4
:10693C0080BD00BF0020024000100240107400080F
:10694C00000000200400002090B48AB000AF2A4B55
:10695C003C1D0FCB84E80F0040F201233B80002349
:10696C00FB610023BB6100237B6200237B6100235E
:10697C003B62224B5B68FB61FB6903F00C03042B4D
:10698C0002D0082B03D02DE01D4B3B622DE0FB69A0
:10699C009B0C03F00F0307F12802134413F8243C5B
:1069AC007B61FB6903F48033002B13D0134B5B68C2
:1069BC005B0C03F0010307F12802134413F8283C85
:1069CC00BB617B690E4A02FB03F2BB69B2FBF3F3BA
:1069DC007B6204E07B690B4A02FB03F37B627B6AFC
:1069EC003B6202E0064B3B6200BF3B6A184628370D
:1069FC00BD4690BC704700BF0074000800100240F8
:106A0C0000127A0000093D0080B400AF024B1B68F5
:106A1C001846BD4680BC70470000002080B500AF12
:106A2C00FFF7F2FF0246054B5B681B0A03F00703F6
:106A3C000349CB5C22FA03F3184680BD00100240D8
:106A4C002074000880B500AFFFF7DEFF0246054B4F
:106A5C005B68DB0A03F007030349CB5C22FA03F300
:106A6C00184680BD001002402074000880B485B028
:106A7C0000AF78600A4B1B680A4AA2FB03235B0A2F
:106A8C007A6802FB03F3FB6000BFFB685A1EFA60D6
:106A9C00002BF9D100BF00BF1437BD4680BC704736
:106AAC0000000020D34D621080B582B000AF78603A
:106ABC007B68002B01D101233FE07B6893F83930D0
:106ACC00DBB2002B06D17B68002283F83820786873
:106ADC00FEF73AFD7B68242283F839207B681B681B
:106AEC00DA687B681B6822F40052DA60786800F080
:106AFC0083FB7B681B681A697B681B6822F49042D5
:106B0C001A617B681B685A697B681B6822F02A0231
:106B1C005A617B681B68DA687B681B6842F4005218
:106B2C00DA607B680022DA637B68202283F83920E4
:106B3C007B68202283F83A20002318460837BD468C
:106B4C0080BD80B58AB002AFF860B9603B60134677
:106B5C00FB8000237B61FB6893F83930DBB2202B80
:106B6C007CD1BB68002B02D0FB88002B01D1012308
:106B7C0075E0FB6893F83830012B01D102236EE0ED
:106B8C00FB68012283F83820FB680022DA63FB687B
:106B9C00212283F83920FEF7E1FD7861FB68FA8841
:106BAC009A84FB68FA88DA84FB689B68B3F5805F8B
:106BBC0008D1FB681B69002B04D10023FB61BB6867
:106BCC00BB6103E0BB68FB610023BB61FB68002277
:106BDC0083F838202AE03B6800937B6900228021EF
:106BEC00F86800F0A7F90346002B01D0032336E028
:106BFC00FB69002B0BD1BB691B881A46FB681B6811
:106C0C00C2F308025A60BB690233BB6107E0FB693F
:106C1C001A78FB681B685A60FB690133FB61FB68DF
:106C2C00DB8C9BB2013B9AB2FB68DA84FB68DB8C91
:106C3C009BB2002BCFD13B6800937B690022402193
:106C4C00F86800F077F90346002B01D0032306E027
:106C5C00FB68202283F83920002300E00223184629
:106C6C002037BD4680BD80B485B000AFF860B960F8
:106C7C001346FB80FB6893F83A30DBB2202B40D1F3
:106C8C00BB68002B02D0FB88002B01D1012339E01B
:106C9C00FB6893F83830012B01D1022332E0FB68FA
:106CAC00012283F83820FB68BA689A62FB68FA887C
:106CBC009A85FB68FA88DA85FB680022DA63FB6840
:106CCC00222283F83A20FB68002283F83820FB68E4
:106CDC001B68DA68FB681B6842F48072DA60FB6838
:106CEC001B685A69FB681B6842F001025A61FB6819
:106CFC001B68DA68FB681B6842F02002DA6000232C
:106D0C0000E0022318461437BD4680BC70470000D3
:106D1C0080B588B000AF78607B681B681B68FB612E
:106D2C007B681B68DB68BB617B681B685B697B618C
:106D3C0000233B610023FB60FB6903F00F033B6105
:106D4C003B69002B0DD1FB6903F02003002B08D00D
:106D5C00BB6903F02003002B03D0786800F0CCF95A
:106D6C00D0E03B69002B00F0B0807B6903F001039D
:106D7C00002B05D1BB6903F49073002B00F0A580A8
:106D8C00FB6903F00103002B0AD0BB6903F4807389
:106D9C00002B05D07B68DB6B43F001027B68DA6368
:106DAC00FB6903F00403002B0AD07B6903F0010399
:106DBC00002B05D07B68DB6B43F002027B68DA6347
:106DCC00FB6903F00203002B0AD07B6903F001037B
:106DDC00002B05D07B68DB6B43F004027B68DA6325
:106DEC00FB6903F00803002B0FD0BB6903F02003F1
:106DFC00002B04D17B6903F00103002B05D07B68C9
:106E0C00DB6B43F008027B68DA637B68DB6B002B7F
:106E1C0077D0FB6903F02003002B07D0BB6903F08C
:106E2C002003002B02D0786800F066F97B681B68A1
:106E3C005B6903F04003002B14BF01230023DBB27A
:106E4C00FB607B68DB6B03F00803002B02D1FB6853
:106E5C00002B31D0786800F0B7F87B681B685B6951
:106E6C0003F04003002B23D07B681B685A697B68B6
:106E7C001B6822F040025A617B685B6B002B13D0BD
:106E8C007B685B6B214A5A637B685B6B1846FEF729
:106E9C00BBFD0346002B16D07B685B6B5B6B7A6883
:106EAC00526B104698470EE0786800F03AF80AE00A
:106EBC00786800F036F806E0786800F032F87B6805
:106ECC000022DA631DE000BF1BE0FB6903F08003C6
:106EDC00002B08D0BB6903F08003002B03D078682B
:106EEC0000F0A3F80EE0FB6903F04003002B09D07F
:106EFC00BB6903F04003002B04D0786800F0E4F881
:106F0C0000E000BF2037BD4680BD00BF0F700008F9
:106F1C0080B483B000AF786000BF0C37BD4680BC36
:106F2C00704780B483B000AF786000BF0C37BD46AB
:106F3C0080BC704780B584B000AFF860B9603B602E
:106F4C001346FB712CE0BB69B3F1FF3F28D0BB6942
:106F5C00002B07D0FEF702FC02463B68D31ABA6935
:106F6C009A421DD2FB681B68DA68FB681B6822F426
:106F7C00D072DA60FB681B685A69FB681B6822F0E8
:106F8C0001025A61FB68202283F83920FB68202219
:106F9C0083F83A20FB68002283F8382003230FE0A3
:106FAC00FB681B681A68BB681340BA689A420CBF2E
:106FBC0001230023DBB21A46FB799A42C3D000238B
:106FCC0018461037BD4680BD80B483B000AF7860E2
:106FDC007B681B68DA687B681B6822F49072DA6045
:106FEC007B681B685A697B681B6822F001025A6136
:106FFC007B68202283F83A2000BF0C37BD4680BC4A
:10700C00704780B584B000AF78607B685B6AFB60CA
:10701C00FB680022DA85FB680022DA84F868FFF747
:10702C0080FF00BF1037BD4680BD80B485B000AF77
:10703C0078607B6893F83930DBB2212B3ED17B68CA
:10704C009B68B3F5805F14D17B681B69002B10D152
:10705C007B681B6AFB60FB681B881A467B681B6895
:10706C00C2F308025A607B681B6A9A1C7B681A621E
:10707C0008E07B681B6A591C7A6811621A787B6875
:10708C001B685A607B68DB8C9BB2013B9BB27A68B5
:10709C001946D184002B0FD17B681B68DA687B689A
:1070AC001B6822F08002DA607B681B68DA687B68F8
:1070BC001B6842F04002DA60002300E0022318460D
:1070CC001437BD4680BC704780B582B000AF786085
:1070DC007B681B68DA687B681B6822F04002DA6008
:1070EC007B68202283F839207868FFF711FF002392
:1070FC0018460837BD4680BD80B584B000AF7860B7
:10710C007B6893F83A30DBB2222B70D17B689B689A
:10711C00B3F5805F17D17B681B69002B13D100235B
:10712C00FB607B689B6ABB607B681B685B689BB27F
:10713C00C3F308039AB2BB681A807B689B6A9A1CDB
:10714C007B689A6226E07B689B6AFB600023BB60CD
:10715C007B689B68B3F5805F07D07B689B68002BCE
:10716C000AD17B681B69002B06D17B681B685B68A6
:10717C00DAB2FB681A7008E07B681B685B68DBB2EC
:10718C0003F07F03DAB2FB681A707B689B6A5A1CA7
:10719C007B689A627B68DB8D9BB2013B9BB27A6801
:1071AC001946D185002B20D17B681B68DA687B6877
:1071BC001B6822F02002DA607B681B68DA687B6847
:1071CC001B6822F48072DA607B681B685A697B68E2
:1071DC001B6822F001025A617B68202283F83A2056
:1071EC007868FDF7B7FF002302E0002300E00223DC
:1071FC0018461037BD4680BD80B584B000AF7860AE
:10720C007B681B681B6923F440517B68DA687B68D8
:10721C001B680A431A617B689A687B681B691A436E
:10722C007B685B691343BB607B681B68DB6823F47A
:10723C00B05323F00C037A681268B9680B43D3601F
:10724C007B681B685B6923F440717B689A697B6877
:10725C001B680A435A617B681B682C4A934203D112
:10726C00FFF7F0FBF86002E0FFF7D8FBF860FA6874
:10727C0013469B0013449A001A447B685B689B007E
:10728C00B2FBF3F3224AA2FB03235B091901FA6850
:10729C0013469B0013449A001A447B685B689B005E
:1072AC00B2FBF3F21A4BA3FB02035B09642000FB55
:1072BC0003F3D31A1B013233154AA2FB03235B09D8
:1072CC0003F0F0031944FA6813469B0013449A0028
:1072DC001A447B685B689B00B2FBF3F20C4BA3FB7C
:1072EC0002035B09642000FB03F3D31A1B01323346
:1072FC00074AA2FB03235B0903F00F027B681B68A0
:10730C000A449A6000BF1037BD4680BD003801406A
:10731C001F85EB5170B500260C4D0D4C641BA41051
:10732C00A64209D100F022F800260A4D0A4C641B33
:10733C00A410A64205D170BD55F8043B9847013600
:10734C00EEE755F8043B98470136F2E7287400083D
:10735C0028740008287400082C74000803460244A2
:10736C00934200D1704703F8011BF9E7F8B500BF51
:10737C00F8BC08BC9E467047F8B500BFF8BC08BC0A
:04738C009E46704762
:10739000464F5441000000000D0A53746172746935
:1073A0006E6720464F54410D0A0000000D0A556ECD
:1073B0006B6E6F776E20636F6D6D616E640D0A008A
:1073C000496620796F752077616E7420746F20751F
:1073D0007064617465206669726D776172652C20D6
:1073E000706C656173652073656E6420636F6D6D8D
:1073F000616E643A22464F5441220D0A000000009B
:1074000002030405060708090A0B0C0D0E0F1010E5
:107410000000000000000000010203040607080944
:0874200000000000010203045A
:0474280031510008D6
:04742C000D510008F6
:0C7430000024F400100000000100000027
:040000050800566D2C
:00000001FF
